:100000008A110A120528000009008316850183124F
:100010008316860183128316870183128501860168
:10002000AC01AD012C08A0002D08A100A3010430F3
:100030002921031D3128053086000030A000A101D0
:100040003C210A3086000030A000A1013C21013093
:10005000AC0700300318013E03183128AD07031C1C
:1000600012281F3083058601AC01AD012C08A000C9
:100070002D08A100A30104302921031D55281030AB
:1000800086000030A000A1013C2120308600003015
:10009000A000A1013C210130AC0700300318013E53
:1000A00003185528AD07031C36281F308305AC0103
:1000B000AD012C08A0002D08A100A30104302921C6
:1000C000031D9F280330AF00B001AE012E08033C92
:1000D000031C93282E08003C031D71282F0885005F
:1000E00089281F3083052E08033C031D7A28093018
:1000F000850087281F3083052F08A0003008A10045
:1001000001306821AF002108B0002F0885001F30A2
:1001100083051F3083050030A000A1013C21013080
:10012000AE07031C66281F3083050130AC07003082
:100130000318013E03189F28AD07031C59281F30E0
:1001400083050030A000A1013C21AC01AD012C08C9
:10015000A0002D08A100A30104302921031DED28D2
:100160000C30AF00B001AE012E08033C031CE128A7
:100170002E08003C031DBF282F088500D7281F30FC
:1001800083052E08033C031DC82809308500D528A7
:100190001F3083052F08A0003008A1000130702116
:1001A000AF002108B0002F0885001F3083051F30E5
:1001B00083050030A000A1013C210130AE07031CE3
:1001C000B4281F3083050130AC0700300318013E0E
:1001D0000318ED28AD07031CA7281F308305AC01C9
:1001E000AD012C08A0002D08A100A3010430292195
:1001F000031D1029803086000030A000A1013C21A1
:10020000403086000030A000A1013C210130AC0745
:1002100000300318013E03181029AD07031CF12814
:100220001F308305803085000030A000A1013C21F3
:1002300085011929A20005302C29A20002302C29A1
:10024000A20006302C29A20003302C29A200043081
:100250002C29A20001302C29A80023082102031D0B
:100260003329220820020430031801300319023018
:100270002805031DFF300800A008031947294E2157
:10028000A003000000000000000000003C29A108BD
:10029000031908004E21A103A0033C290C30A5003E
:1002A000A50B5029000000006230A200A20B5D29BE
:1002B0005F215F210000000008005F2156290D30FA
:1002C000A400A40B6129000008000310A00DA10DDB
:1002D000FF3E03186529200808000310A10CA00C9C
:0A02E000FF3E03186D2920080800F6
:02400E00713F00
:00000001FF
